:020000040800F2
:10000000900B002091010008312500089919000883
:100010002D250008410400082926000800000000E2
:100020000000000000000000000000001D26000885
:1000300045040008000000003525000821260008BE
:10004000AB010008AB010008AB010008AB010008E0
:10005000AB010008AB010008AB010008AB010008D0
:10006000AB010008AB010008AB010008AB010008C0
:10007000AB010008AB010008AB010008AB010008B0
:10008000AB010008AB010008AB010008AB010008A0
:10009000AB010008AB010008AB010008AB01000890
:1000A000AB010008AB010008AB010008AB01000880
:1000B000AB010008AB010008AB010008AB01000870
:1000C000AB010008AB010008AB010008AB01000860
:1000D000AB010008AB010008AB010008AB01000850
:1000E000AB010008AB010008AB01000800F002F80A
:1000F00000F03FF80AA090E8000C82448344AAF183
:100100000107DA4501D100F034F8AFF2090EBAE880
:100110000F0013F0010F18BFFB1A43F0010318473B
:100120004C4B00006C4B0000103A24BF78C878C1DB
:10013000FAD8520724BF30C830C144BF04680C60ED
:10014000704700000023002400250026103A28BF35
:1001500078C1FBD8520728BF30C148BF0B60704739
:10016000642900F07D80002070471FB51FBD10B5C9
:1001700010BD00F02AF91146FFF7F7FF03F018FA57
:1001800000F048F903B4FFF7F2FF03BC00F050F9A8
:100190000948804709480047FEE7FEE7FEE7FEE71B
:1001A000FEE7FEE7FEE7FEE7FEE7FEE70448054957
:1001B000054A064B7047000025260008ED000008A0
:1001C00090050020900B0020900700209007002051
:1001D0000FB41CB5074B06AA7B44694600900598EE
:1001E00000F0DBF80020694600F0EAF81CBC5DF87E
:1001F00014FB0000E50100002DE9F0410E46044625
:10020000002020622046E168884730B3252805D0C9
:10021000D4E901219047206A401CF2E7E1682046BA
:1002200000278847050018D0A5F14100192802D8F9
:1002300020354FF400673246294620462760FFF7F5
:100240008FFF40B1012804D0F61D26F007060836BE
:10025000D8E7361DD6E72846DAE7206ABDE8F08100
:100260002DE9F0410646002410687529314616A58F
:1002700010D0AFF30080002802DA404213A507E057
:1002800031688A0701D512A502E0490704D511A5F6
:10029000012401E0AFF3008000210A2206F12407C7
:1002A00009E0B0FBF2FCB0FBF2F302FB1C003030C3
:1002B00078541846491C0028F3D123462A46304674
:1002C000BDE8F04100F00BB8000000002D00000078
:1002D0002B000000200000007047704770472DE998
:1002E000F0470D4699469246044600F124080168FD
:1002F000880604D5E06921F01001216000E00120AA
:10030000A84201DD471B00E00027A1697A1902EB32
:100310000900081AA0612078C00602D42046AFF375
:100320000080002608E0D4E901211AF80600904771
:10033000206A401C761C20624E45F4DB2078C00603
:100340000AD52046AFF3008006E0D4E90121302031
:100350009047206A401C2062381EA7F10107F4DC98
:1003600007E0D4E9012118F805009047206A401CF5
:100370002062281EA5F10105F3DC2046AFF30080C2
:100380002078000602D50220BDE8F0870120FBE7B7
:1003900001694A1C02610878704700B58FB0CDE949
:1003A00001310021059105497944CDE90310114639
:1003B0006846FFF721FF0FB000BD0000E5FFFFFF1B
:1003C0000A6802F8010B0A607047754600F02CF8C5
:1003D000AE4605006946534620F00700854618B032
:1003E00020B5FFF7E3FEBDE820404FF000064FF0D8
:1003F00000074FF000084FF0000BAC46ACE8C00916
:10040000ACE8C009ACE8C009ACE8C00921F00701BC
:100410008D46704710B50446AFF300802046BDE816
:100420001040FFF7AFBE00000048704718000020E2
:1004300001491820ABBEFEE726000200704700000D
:10044000FEE700007047000070B542F20C0604465B
:10045000C4F2020600F004FB3168C90717D1306806
:10046000800644BF202030603068C00607D4306961
:10047000C00704D1306840075CBF002070BD306801
:10048000C00620D400203168490728D431E0002C70
:1004900044D00546601C0DD13068C007DFD03068FD
:1004A000C0071CBF30685FEAC070D8D03068C00792
:1004B000F2D1D4E700F0D4FA401BA0422ED8306825
:1004C000C007F7D1CBE740F26850C2F20000C16923
:1004D00041F00201C16110203168490709D540F29D
:1004E0006851C2F20001CA6940F0040042F0010202
:1004F000CA613169C90702D13060012070BD40F284
:100500006851C2F20001CA6942F00402CA6131694D
:1005100021F0010131613060012070BD032070BD08
:1005200010B586B0044600F06FF901200590CDE9C2
:1005300003040020029002A801A900F07FF800F057
:10054000F5F806B010BD000080B501320023B3EB12
:10055000520F2AD04FEA520C0022002313E000BFB2
:1005600030F812E043F0030292B29445A1F804E09F
:1005700098BF80BD30F812200433CA809AB29445E7
:1005800001F1080111D930F812E043F0010292B2F2
:100590009445A1F800E008D930F812E043F00202D7
:1005A00092B29445A1F802E0DAD880BD0088704785
:1005B000F0B581B016460D46044600F025F9701CD2
:1005C0000021B1EB500F0FD04608023D002000275C
:1005D00035F8022F04EB40010120002300F0B0F8B1
:1005E0000137B8B28642F3D801B0BDE8F04000F060
:1005F0009DB80000B0B50C46054600F005F9E317BC
:1006000001202946224600F09BF8BDE8B04000F0EA
:100610008DB80000B0B5044600F022FA054640F25D
:100620000C00C2F200000078611C18BF044400BF37
:1006300000F016FA401BA042FAD3B0BD2DE9F043FA
:1006400081B040F26856C2F20006327E012A03D120
:10065000022001B0BDE8F083054601202C68307609
:100660004CF250308846FFF7EFFE022C1CD10028D8
:100670004ED1002042F21004F061C4F2020420685E
:1006800040F004002060206840F0400020604CF200
:100690005030FFF7D9FE216821F0040121600021CC
:1006A000317601B0BDE8F08390BB4FF0FF30C8F861
:1006B0000000D5E9027007EB8020874228D242F281
:1006C0001004C4F202044FF0000900BFC6F81C90E9
:1006D000206840F0020020606760206840F0400021
:1006E00020604CF25030FFF7AFFE216821F002018C
:1006F000216098B9D5E9020107F5806700EB8120F8
:100700008742E3D300200021317601B0BDE8F083B9
:1007100001200021317601B0BDE8F083C8F80070F7
:100720000021317601B0BDE8F083000042F21001F3
:10073000C4F20201086840F0800200200A6070479D
:100740002DE9F04F81B040F26858C2F2000892469D
:1007500098F81820012A03D1022001B0BDE8F08FDB
:100760008146012088F818004CF250301C460E4695
:10077000FFF76AFE28B1002188F8181001B0BDE823
:10078000F08F4D4642F21007B9F1020F18BF042551
:10079000C4F20207B9F1010F08BF4D466FF01F09FF
:1007A00000204FF0000B00BF202200230101A2EB2C
:1007B0000012C8F81C3004FA02F22AFA01F13B6870
:1007C000114309EB0012002A58BF24FA02F143F04A
:1007D00001023A6026F810104CF25030FFF734FE58
:1007E0003968002821F001013960C4D10BF1010BF7
:1007F0005FFA8BF08542D7D80020002188F81810C6
:1008000001B0BDE8F08F000042F20400C4F2020023
:10081000C16809065CBF0020704740F22311C4F292
:100820006751016048F6AB11CCF6EF510160C0682A
:10083000C0F3C010704700002DE9F04F82B00E6881
:10084000002E00F0FD8040F20C4C41F200424FF6C9
:10085000FF7BC4F2010CC4F201020423002401272F
:10086000C1F2100B4FF0000A4FF000094FF00F0ECD
:10087000904208BF032300933EE00123BB402B437B
:1008800042F82B30D1F804B040F20047C4F201071F
:100890005FEACB22BA6854BF22EA080242EA0802A1
:1008A000BA60DCF800205FEA8B2354BF22EA08021A
:1008B00042EA0802CCF800207A685FEA8B3354BF22
:1008C00022EA080242EA08027A605FEACB333A6819
:1008D0004FF6FF7B54BF22EA080242EA08023A6060
:1008E0000127C1F2100B0E680AF1010A36FA0AF26A
:1008F00004F1040400F0A48007FA0AF816EA080FCD
:10090000F1D04A685A4511DC122A51D8DFE802F0CA
:10091000340A424650505050505050505050505051
:1009200050494D00D1F80C9042E000BF4FF6FF73E4
:10093000C1F221039A420FDC0023C1F211039A4253
:100940001AD00023C1F212039A4215D00023C1F23B
:1009500021039A4210D02BE00023C1F222039A42D5
:100960000AD00023C1F231039A4205D00023C1F21C
:1009700032039A421CD100BF8A6842B1012A14BFD7
:10098000C0F81480C0F810804FF0080910E04FF054
:1009900004090DE0CA6802F1080909E04FF00009F6
:1009A00006E0CA6802F1040902E0CA6802F10C0913
:1009B00022460346BAF1080F24BF203A04331D68CB
:1009C0000EFA02F6B54309FA02F22A431A60CA790E
:1009D000D2067FF588AF41F21803C4F202031A6809
:1009E0004FEA9A0B42F001021A601A6804F00C07F1
:1009F00002F001020192019A40F20042C4F20102A7
:100A0000A2F57E7252F82B3040F600060EFA07F57A
:100A1000C4F20106B04223EA05050FD040F60043B8
:100A2000C4F2010398423FF428AF41F20003C4F23C
:100A300001039842009B08BF02231FE700231DE724
:100A400002B0BDE8F08F00008068084018BF0120A8
:100A500070470000002A08BF0904016170470000C8
:100A600040F28850C2F200000068704710B5B8B379
:100A7000044690F83D0028B9002084F83C00204648
:100A800000F0CAF9242084F83D002068016821F0B4
:100A900001010160016841F400410160016821F435
:100AA0000041016000F07AFB48F28041C0F21E0173
:100AB00040F6001388424FF00001C0F23D03D4F825
:100AC00004E038BF0121984248F2A1634FF00002D0
:100AD000C0F2010338BF01229E4538BF0A460AB161
:100AE000012010BD4DF68361C4F21B31A0FB011241
:100AF00021684FEA924C4B6823F03F0343EA92424D
:100B00004A600A6A48F2A063C0F201039E4522F0DF
:100B10003F0210D80CF101031A430A6201384FEA70
:100B20004E02B0FBF2F0CA6901306FF31F300428A7
:100B300098BF04202CE04FF496730CFB03FC44F6A2
:100B4000D353C1F26203ACFB033C012303EB9C13C0
:100B50001A430A62CA69A36801385BB119230EFB04
:100B600003F3B0FBF3F001306FF31F3068B100F511
:100B7000804007E00EEB4E03B0FBF3F001306FF363
:100B80001F3020B100F5004002E0012000E001200C
:100B90004CF6FF739A431043C8610868D4E90723F1
:100BA00020F0C000104318430860886848F2FF3204
:100BB00004F10C0E90439EE80C50184310438860DB
:100BC000C86820F0FF0040EA0C0040EA0E00C86050
:100BD000086840F00100086000202021206484F8AB
:100BE0003D10206384F83E0010BD00002DE9F04365
:100BF00081B01F46164689460446FFF731FF94F838
:100C00003D10202920D10546206800BF8169890751
:100C100016D5FFF725FF411B20681A29F6D38169F5
:100C20008907F3D500202021206384F83D1084F843
:100C30003E00216C41F02001216484F83C0003E077
:100C400094F83C10012903D1022001B0BDE8F083E3
:100C5000012184F83C100168C90703D1016841F003
:100C600001010160016840F2020821F400610160A5
:100C7000212184F83D10102184F83E1000212164C8
:100C800066626785618DC0F201082185A8F10211B5
:100C9000E162E16A11F5803F18BF012937D101688F
:100CA00041F4807101604169089FC90742D1791CF4
:100CB00036D067B9FFF7D4FE20684169C9070FD065
:100CC0004169C907F6D035E04169C90732D1FFF75C
:100CD000C7FE411B2068B942F6D94169C907F3D163
:100CE00000212022216384F83D2084F83E10226CEC
:100CF00042F02002226484F83C100068C00544BF22
:100D00004FF400702064012001B0BDE8F083082991
:100D1000C5D0216B1229C2D0C5E74169C90709D1E5
:100D20004169C90706D14169C90704BF41695FEA42
:100D3000C171F2D02169B1F5804F02D109F0FE01F5
:100D400010E0062101EAD911F031016108F1060134
:100D500020463A462B4600F08DFE0028D3D120686D
:100D60005FFA89F10161204641463A462B4600F080
:100D700081FE0028C7D100200090206841690091C1
:100D800080690090009805E0204639462A4600F028
:100D900005FE20BB208D78B3204639462A4600F058
:100DA000DFFEE0B9606A2168024612F8013B0B6180
:100DB0006262628D013A6285228D561E26854B69DC
:100DC000360418BF13F00403DED0437802300B6101
:100DD0006062608D01386085901E2085D4E7206CAC
:100DE00004287FF490AF2068016841F4007101602D
:100DF000012001B0BDE8F0832068016841F4007172
:100E00000160202084F83D00002084F83E0084F832
:100E10003C0001B0BDE8F08310B586B0006845F233
:100E20000041C4F2000188424FF00000CDE9040007
:100E3000CDE9020001D006B010BD41F21804C4F2A1
:100E40000204206802A940F008002060206800F039
:100E50000800019001984FF4407002901220039016
:100E60000320059040F60040C4F20100FFF7E4FCC7
:100E70000420C4F20100016841F0E06141F0020188
:100E80000160606840F400106060606800F4001069
:100E90000190019806B010BD40F20C0040F288515C
:100EA000C2F20000C2F2000100780A681044086033
:100EB0007047000080B542F20000C4F202000168F1
:100EC00041F010010160032000F07AF80F2000F0DB
:100ED00005F800F027F8002080BD000070B540F252
:100EE0000C06C2F2000640F214013278C2F2000190
:100EF0004FF47A730968B3FBF2F20446B1FBF2F1E6
:100F0000084600F033FD0F2C4FF0010508D838B922
:100F10004FF0FF3021460022002500F025F87460D4
:100F2000284670BD82B041F21800C4F20200016888
:100F3000022241F001010160016801F0010101910B
:100F40000199416841F080514160406800F0805053
:100F5000009000980420C4F20100016862F31A6155
:100F6000016002B07047000010B54EF60C5CCEF286
:100F7000000CDCF80030C3F3022E8EF00704042CC2
:100F800028BF0424BEF103034FF0FF3E0EFA04F421
:100F900038BF0023A14399400EFA03F39A4300F0AF
:100FA0000F03043B1143634409010C3300F1604219
:100FB000B0F1FF3FC8BF02F56443197010BD0000D7
:100FC0004EF60C51CEF200010A684FF6FF031A40AC
:100FD00060F30A2242F0806040F0FD7008607047C4
:100FE0002DE9F04381B0002800F0858042F200082E
:100FF000C4F202080446D8F800000D4600F00700CD
:1010000088420CD2D8F8000020F007002843C8F826
:101010000000D8F8000000F00700A8426BD120685B
:1010200041F204098107C4F2020917D5410705D529
:10103000D9F8001041F4E061C9F80010010705D5A6
:10104000D9F8001041F46051C9F80010D9F8001027
:10105000A26821F0F0011143C9F80010C00741D186
:10106000D8F8000000F00700A8420CD9D8F800001A
:1010700020F007002843C8F80000D8F8000000F06E
:101080000700A84237D12068410707D5D9F80010DA
:10109000E26821F4E0611143C9F80010000708D5A7
:1010A000D9F80000216920F4605040EAC100C9F875
:1010B0000000D9F8002002F00C00082841F20020BE
:1010C000C0F27A004ED144F68E33C2F38341C0F6AB
:1010D0000003595CD20339D440F60010C0F23D0041
:1010E00048433FE06068022809D0012829D159F817
:1010F000041C890307D4012001B0BDE8F08359F82E
:10110000041C8901F7D5D9F8001021F00301084328
:10111000C9F80000FFF7A4FC064641F2883700BF7B
:10112000D9F80000616800F00C00B0EB810F97D097
:10113000FFF796FC801BB842F2D9032001B0BDE84E
:10114000F08359F8041C8907D5D5DCE7D9F80020CD
:1011500044F68C33C2F34042C0F600039A5C484325
:10116000B0FBF2F0D9F8001044F67432C1F3031169
:10117000C0F60002515C40F2140220FA01F140F284
:101180001000C2F200000068C2F200021160FFF716
:10119000A5FE002001B0BDE8F083000040F214007D
:1011A00041F20401C2F20000C4F2020100680968C1
:1011B00044F68432C1F30221C0F60002515CC840FB
:1011C000704700002DE9F04182B0002868D0044645
:1011D000007841F20006C007C4F2020625D070680C
:1011E00000F00C0004281BD0706800F00C000828E8
:1011F00002D17068C00313D46068002800F06281D7
:10120000B0F5A02F00F07681B0F5803F00F0768138
:10121000306820F480303060306820F4802070E145
:101220003068800301D56068D0B32078800718D576
:10123000706810F00C0F07D0706800F00C000828E0
:101240006DD17068C0036AD43068800702D5206908
:10125000012825D13068616920F0F80040EAC1001A
:101260003060207800071FD42078400732D4E56929
:1012700095B1706800F00C00082840F08D80012DB9
:101280000ED07068216A00F480328A4208D1616A07
:1012900000F47010884203D1002002B0BDE8F08154
:1012A000012002B0BDE8F081A069002860D00020D4
:1012B000C4F242200121C0F88014FFF7D1FB05469B
:1012C000706A800700F18A80FFF7CAFB401B022882
:1012D000F6D924E1F06910F0805808D1F06940F0A7
:1012E0008050F061F06900F080500090009847F263
:1012F0000007C4F200073868C00527D4386840F4F6
:1013000080703860FFF7ACFB054600BF3868C00549
:101310001CD4FFF7A5FB401B6428F7D9FFE0206928
:10132000002840F20000C4F2422000F08180012138
:101330000160FFF795FB0546306880073FF58AAFEF
:10134000FFF78EFB401B0228F6D9E8E0E068002892
:1013500000F08080052800F09680012800F097803A
:10136000306A20F001003062306A20F0040091E021
:101370000020C4F242200021C0F88014FFF770FB67
:10138000054600BF706A80077FF56EAFFFF768FB08
:10139000401B0228F6D9C2E00027C4F242270020F1
:1013A0003866FFF75DFB022D05460BD130688001E2
:1013B00040F1B980FFF754FB401B02284FF00300B7
:1013C000F4D96AE7306880017FF566AFFFF748FB24
:1013D000401B02284FF00300F4D95EE740F21400EE
:1013E000C2F20000006844F6D351C1F26201A0FBD2
:1013F0000101480A019000BF00BF0198411E00286A
:1014000001913FF431AF00BF0198411E00280191C6
:101410003FF42AAF00BF0198411E002801913FF41C
:1014200023AF00BF0198411E00280191E4D11BE7C2
:1014300000210160FFF714FB054600BF30688007FC
:101440007FF50FAFFFF70CFB401B02284FF00300A6
:10145000F4D922E7306A20F001003062306A20F0CF
:1014600004003062FFF7FCFA054641F2883700BFFE
:10147000306A80071DD5FFF7F3FA401BB8424FF0E2
:101480000300F5D909E7306A40F004003062306AA1
:1014900040F001003062FFF7E3FA054641F2883779
:1014A000306A800705D4FFF7DBFA401BB842F7D952
:1014B00035E0B8F1000F7FF4DAAEF06920F080502B
:1014C000F061D4E6306820F480303060306820F479
:1014D00080203060FFF7C4FA054600BF3068800303
:1014E0007FF5A3AEFFF7BCFA401B64284FF0030062
:1014F000F4D9D2E6306840F480203060306840F49F
:1015000080303060FFF7ACFA054600BF30688003DA
:101510003FF58BAEFFF7A4FA401B6428F6D90320F1
:1015200002B0BDE8F081206AB0F5803F05D1716856
:10153000A26821F40031114371607168626A21F47C
:10154000741110430843706001203866FFF788FA71
:10155000044600BF306880013FF59EAEFFF780FA79
:10156000001B02284FF00300F4D996E670B538B19D
:101570000446406A30B10020206104F1140007E005
:10158000012070BD6068B0F5827F03D004F11C00BB
:10159000002101600026A66294F851004FF0000C73
:1015A00038B9204684F8506000F03AF8A06A00F498
:1015B000005C022184F8511094E80E00E0680D6888
:1015C00002F4827225F040050D6003F404431A44CE
:1015D000236900F40060104403F0020263691044C0
:1015E00003F00102A369E569104403F4007210449A
:1015F00005F03802256A104405F08002104340EAE5
:101600000C000860042000EA13404860C86920F418
:101610000060C8610120666584F85100304670BDE5
:1016200070B586B0002640F600040596CDE9036645
:10163000C4F20104006804F520518842029601D0EA
:1016400006B070BD41F21800C4F20200016802AD9C
:1016500041F480510160016801F4805101910199C8
:10166000016841F0040101600068294600F00400AF
:1016700001900198A0200290022003900320059081
:101680002046FFF7D9F84020CDE90206204629463A
:101690000496FFF7D1F806B070BD00002DE9F043C5
:1016A00081B0044690F85000012803D1022001B017
:1016B000BDE8F08301201E4615460F4684F8500011
:1016C000FFF7CEF994F85110814601290BD1002F74
:1016D0004FF0010018BF002D12D1002184F85010E6
:1016E00001B0BDE8F0836068B0F5827F40F098807B
:1016F00004294FF00200F0D1A1680029E7D0ECE7FF
:10170000002EEAD094F85100002104281CBF0520C7
:1017100084F851006165A563E687A6872763E6869E
:101720002068A686216461640168490603D40168C3
:1017300041F0400101606168731EE268B1FA81F115
:10174000B3FA83F3DDF8208049095B09B2F5006F35
:1017500041EA03016BD131B137F8021BC160276345
:10176000E08E0138E086012518F1010031D101E059
:10177000FFF776F9E08E18B9E08F002800F0C080FE
:101780002068816889070CD5E18E012D09D141B10E
:10179000216B002531F8022BC2602163E18E0139F3
:1017A000E1868168C907E3D0E18F0029E0D0C068F5
:1017B000A16B012521F8020BA163E08F0138E087BE
:1017C000D6E700BFFFF74CF9A0EB0900404580F0D9
:1017D000AB80E08E18B9E08F002800F0918020687F
:1017E000816889070CD5E18E012D09D141B1216BAA
:1017F000002531F8022BC2602163E18E0139E186B8
:101800008168C907DED0E18F0029DBD0C068A16BF9
:10181000012521F8020BA163E08F0138E087D1E7B1
:101820000220002184F8501001B0BDE8F08339B1E6
:1018300039780173206B01302063E08E0138E08637
:10184000012518F1010033D102E000BFFFF708F9CC
:10185000E08E10B9E08F002852D020688168890797
:101860000ED5E18E012D0BD151B1216B00250978E8
:101870000173216B206801312163E18E0139E1861A
:101880008168C907E2D0E18F0029DFD0C068A16B71
:1018900001250870A06B0130A063E08F0138E0875C
:1018A000D4E700BFFFF7DCF8A0EB090040453BD2CE
:1018B000E08E08B9E08F18B32068816889070ED5DB
:1018C000E18E012D0BD151B1216B002509780173F7
:1018D000216B206801312163E18E0139E186816845
:1018E000C907DFD0E18F0029DCD0C068A16B0125DA
:1018F0000870A06B0130A063E08F0138E087D1E76A
:101900002046802142464B4600F016FEB0B1606D85
:1019100040F020006065202060650120002184F8EF
:10192000501001B0BDE8F083012084F8510003207D
:10193000002184F8501001B0BDE8F083A06838B9E8
:10194000002000902068C168009180680090009895
:10195000606D00284FF0010004BF84F851000020A2
:10196000002184F8501001B0BDE8F083411E002032
:10197000B0EB116F1CBF012070474EF21002CEF287
:10198000000251604EF62351CEF20001F0230B709D
:101990000721906011607047FEE7000070B5036892
:1019A000044653F8140F40072DD40E46481C24D08B
:1019B0005EBB00BF1868400549D4FFF751F82368A3
:1019C00053F8140F400733D518684007F2D51AE0D2
:1019D000186840053BD41868400714D418684005BF
:1019E00035D4186840070ED4186840052FD41868FD
:1019F00040074FF0000048BF70BD1868400526D46E
:101A000018684007E4D5002070BD154604E000BF0B
:101A100053F8140F4007F6D41868400517D4FFF7A1
:101A20001FF8401B2368B042F2D958694007EFD431
:101A300000202021206384F83D1084F83E00216CB2
:101A400041F02001216484F83C00012070BD6FF456
:101A50008060186000202021206384F83D1084F805
:101A60003E00216C41F00401216484F83C00012017
:101A700070BD0000F0B581B01D460368044658698A
:101A80008FB23840B84202D1002001B0F0BD1646F6
:101A9000002A48D0701C23D15869400546D45869A3
:101AA0003840B842F0D0586940053FD458693840B2
:101AB000B842E9D05869400538D458693840B8422E
:101AC000E2D05869400531D458693840B8424FF0E7
:101AD0000000E1D142E000BF58693840B8423CD034
:101AE0005869400522D4FEF7BBFF401B2368B04273
:101AF000F2D958693840B842EED000202021206346
:101B000084F83D1084F83E00216C41F020011EE075
:101B1000FEF7A6FF236858693840B842EDD15869EE
:101B20003840B842B0D058694005F1D51868202136
:101B300040F4007018606FF48060586100202063EA
:101B400084F83D1084F83E00216C41F004012164CA
:101B500084F83C00012001B0F0BD002001B0F0BDD0
:101B600070B50368044653F8140F00062DD40E46D2
:101B7000481C24D05EBB00BF1868400549D4FEF75E
:101B80006FFF236853F8140F000633D5186800065A
:101B9000F2D51AE0186840053BD41868000614D442
:101BA0001868400535D4186800060ED4186840053A
:101BB0002FD4186800064FF0000048BF70BD1868A9
:101BC000400526D418680006E4D5002070BD1546EF
:101BD00004E000BF53F8140F0006F6D4186840055F
:101BE00017D4FEF73DFF401B2368B042F2D9586975
:101BF0000006EFD400202021206384F83D1084F8F3
:101C00003E00216C41F02001216484F83C00012059
:101C100070BD6FF48060186000202021206384F87C
:101C20003D1084F83E00216C41F00401216484F8E9
:101C30003C00012070BD00002DE9F04383B040F668
:101C40000009C4F201094846102100224FF00008A3
:101C5000FEF700FF40F21015A820C2F200050DF1BA
:101C60000B060DF10A078DF80B000A2428463146B1
:101C70003A4601230094FFF711FD284631463A46C3
:101C800001238DF80B800094FFF708FD9DF80A40B2
:101C9000484610210122FEF7DDFEA00702D003B066
:101CA000BDE8F0831420032100F006FA03B0BDE87C
:101CB000F08300002DE9F04782B040F60008C4F23E
:101CC000010804464046102100224FF00009FEF7AB
:101CD000C1FE40F210161A20C2F200060DF10707ED
:101CE0000DF106058DF807004FF00A0A3046394617
:101CF0002A460123CDF800A0FFF7D0FC3046394634
:101D00002A4601238DF80790CDF800A0FFF7C6FC06
:101D1000404610210122FEF79DFE42F293002080F2
:101D200001AF0C20214602222346009700F022FA40
:101D300010B102B0BDE8F08720786178A278E3782E
:101D40004840504021795840401A18BF01204000B7
:101D500002B0BDE8F08700002DE9F04F83B040F6F7
:101D6000000804468020C4F20108894640EA440580
:101D7000404610210022FEF76DFE40F2101BC2F219
:101D8000000B0DF10B060DF10A074FF00A0A584639
:101D900031463A4601238DF80B50CDF800A0FFF7ED
:101DA0007DFC00208DF80B00584631463A46012351
:101DB000CDF800A0FFF772FC9DF80A5040461021B4
:101DC0000122FEF747FE7E2000EA4404404610212F
:101DD000002225EA0905FEF73DFE584631463A46FF
:101DE00001238DF80B40CDF800A0FFF757FC5846B3
:101DF00031463A4601238DF80B50CDF800A0FFF78D
:101E00004DFC404610210122FEF724FE03B0BDE840
:101E1000F08F00002DE9F04383B040F60008C4F2D3
:101E200001084046102100224FF00009FEF712FE83
:101E300040F210150220C2F200050DF10B060DF163
:101E40000A078DF80B000A24284631463A4601233A
:101E50000094FFF723FC0F208DF80B002846314635
:101E60003A4601230094FFF719FC40461021012255
:101E7000FEF7F0FD404610210022FEF7EBFD542056
:101E80008DF80B00284631463A4601230094FFF7AF
:101E900005FC8D208DF80B00284631463A4601237B
:101EA0000094FFF7FBFB404610210122FEF7D2FD14
:101EB000404610210022FEF7CDFD56208DF80B0084
:101EC000284631463A4601230094FFF7E7FB3E20BF
:101ED0008DF80B00284631463A4601230094FFF75F
:101EE000DDFB404610210122FEF7B4FD40461021E3
:101EF0000022FEF7AFFD5A208DF80B002846314630
:101F00003A4601230094FFF7C9FB1E208DF80B0011
:101F1000284631463A4601230094FFF7BFFB40466E
:101F200010210122FEF796FD404610210022FEF707
:101F300091FD58208DF80B00284631463A46012382
:101F40000094FFF7ABFB284631463A4601238DF853
:101F50000B900094FFF7A2FB404610210122FEF7F0
:101F600079FD404610210022FEF774FD4C208DF8CB
:101F70000B00284631463A4601230094FFF78EFBBA
:101F800070208DF80B00284631463A460123009414
:101F9000FFF784FB404610210122FEF75BFD40461F
:101FA00010210022FEF756FD2A208DF80B0028464E
:101FB00031463A4601230094FFF770FB40208DF82C
:101FC0000B00284631463A4601230094FFF766FB92
:101FD000404610210122FEF73DFD4046102100221F
:101FE000FEF738FD22208DF80B00284631463A4690
:101FF00001230094FFF752FB3D208DF80B0028468B
:1020000031463A4601230094FFF748FB4046102131
:102010000122FEF71FFDFFF70FFE03B0BDE8F083BE
:102020002DE9F04782B040F60008C4F201080C46E2
:102030008146404610210022FEF70CFD40F21017A9
:102040001A20C2F200070DF107060DF106058DF802
:1020500007004FF00A0A384631462A460123CDF8D8
:1020600000A0FFF71BFB07208DF80700384631461C
:102070002A460123CDF800A0FFF710FB40461021AF
:102080000122FEF7E7FC01AF0C2021460122234686
:1020900084F80090009700F06DF8BDF8041002225B
:1020A00010294FF0020108BF0146002818BF114651
:1020B000084602B0BDE8F0872DE9F04F83B040F646
:1020C000000804468020C4F20108894640EA44051D
:1020D000404610210022FEF7BDFC40F2101BC2F268
:1020E000000B0DF10B060DF10A074FF00A0A5846D6
:1020F00031463A4601238DF80B50CDF800A0FFF78A
:10210000CDFA00208DF80B00584631463A4601239F
:10211000CDF800A0FFF7C2FA9DF80A504046102102
:102120000122FEF797FC7E2000EA4404404610217D
:10213000002245EA0905FEF78DFC584631463A462D
:1021400001238DF80B40CDF800A0FFF7A7FA584601
:1021500031463A4601238DF80B50CDF800A0FFF729
:102160009DFA404610210122FEF774FC03B0BDE841
:10217000F08F00002DE9F04F87B017460C2801932F
:10218000CDE9031005D00E2807D1112005901220AB
:1021900006E031200590772002E001200590002024
:1021A00040F60006C4F20106029000F180043046B9
:1021B000102100224FF00009FEF74CFC40F21015F0
:1021C0000420C2F200050DF11B080DF11A0B8DF869
:1021D0001B004FF00A0A284641465A460123CDF813
:1021E00000A0FFF75BFA284641465A4601238DF8C6
:1021F0001B40CDF800A0FFF751FA30461021012214
:10220000FEF728FC04208021FFF7A6FD0A2080218C
:10221000FFF752FF304610210022FEF71BFC022080
:102220008DF81B00284641465A460123CDF800A0F0
:10223000FFF734FA284641465A4601238DF81B9091
:10224000CDF800A0FFF72AFA304610210122FEF750
:1022500001FC77B3039840F2101B451EC2F2000B3D
:102260000DF11B0A0DF11A044FF00A0915F8018F40
:10227000304610210022FEF7EDFB12208DF81B00E6
:102280005846514622460123CDF80090FFF706FA42
:1022900058465146224601238DF81B80CDF8009008
:1022A000FFF7FCF9304610210122FEF7D3FB013F76
:1022B000DCD1304610210022FEF7CCFB40F2101793
:1022C0000220C2F200070DF11B090DF11A088DF86A
:1022D0001B0038464946424601230A250095FFF770
:1022E000DDF9049C38464946424601238DF81B40DF
:1022F0000095FFF7D3F9304610210122FEF7AAFB23
:102300000C2C03D10D208021FFF7D6FE40F2101ACD
:102310004FF4FA654FF088094FF00A0BC2F2000A39
:102320000DF11B080DF11A07304610210022FEF7AF
:1023300091FB504641463A4601238DF81B90CDF85B
:1023400000B0FFF7ABF900208DF81B005046414666
:102350003A460123CDF800B0FFF7A0F99DF81A40E6
:10236000304610210122FEF775FB013D28043AD0CA
:1023700005982042D8D00D208021FFF7EDFC304693
:10238000102100224FF00008FEF764FB40F2101706
:102390008C20C2F200070DF11B050DF11A0A8DF811
:1023A0001B004FF00A093846294652460123CDF852
:1023B0000090FFF773F938462946524601238DF8FD
:1023C0001B80CDF80090FFF769F99DF81A50304650
:1023D00010210122FEF73EFB15F01B0F0BD002204F
:1023E00007B0BDE8F08F0D208021FFF7B5FC02207B
:1023F00007B0BDE8F08F0298049920400C2900F046
:102400000100F5D105903046102100224FF0100A4E
:102410000024FEF71FFB40F210159420B146C2F2D3
:1024200000050DF11B070DF11A068DF81B004FF08A
:102430000A082846394632460123CDF80080FFF7C6
:102440002DF928463946324601238DF81B40CDF838
:102450000080FFF723F99DF81AB0484610210122A9
:10246000FEF7F8FA484610210022FEF7F3FA98200A
:102470008DF81B002846394632460123CDF80080EE
:10248000FFF70CF928463946324601238DF81B40E8
:10249000CDF80080FFF702F99DF81A404846102158
:1024A0000122FEF7D7FA14F0070040EACB0010999A
:1024B000A0F1080008BF4FEACB000880BBF1000F75
:1024C00008BF4FF0010BBBF1100F28BFD346019896
:1024D000A0F1010A484610210022FEF7BBFA922023
:1024E0008DF81B002846394632460123CDF800807E
:1024F000FFF7D4F800208DF81B00284639463246F5
:102500000123CDF80080FFF7C9F89DF81A4048462E
:1025100010210122FEF79EFABBF1010B0AF8014FD0
:10252000D8D1059807B0BDE8F08F0000FEE70000A5
:10253000FEE70000704700002DE9F04182B01E4622
:1025400090460D460446FEF78BFA301A00EB08075A
:10255000FEF786FA40F21401C2F200010968C1F3E5
:10256000CB317943019121688A682A40AA4227D158
:10257000064618F101001FD0FEF772FA801BB84220
:1025800022D2019801990028A1F10101019121684D
:10259000896808BF074601EA0500A842ECD00FE0B1
:1025A00088682840A8420BD188682840A84207D1F3
:1025B00088682840A84203D188682840A842EFD004
:1025C000002002B0BDE8F081D4E900014268B1F515
:1025D000827F22F0E00242600AD1A168B1F5004F8B
:1025E00002D0B1F5806F03D1016821F04001016094
:1025F000A16AB1F5005F07D1016821F400510160C3
:10260000016841F400510160012084F8510000206C
:1026100084F85000032002B0BDE8F081704700004C
:10262000FEF73ABC70470000FEE700002DE9F041DC
:1026300040F27806C2F20006F068B0F57F7F16D14E
:1026400000F052FE00200221002400F003FF44F6B7
:102650002840C0F6000000F04BFF0120012100F0EF
:10266000F9FEBBA000F044FF3471BDE8F08100200A
:102670000021002400F0EEFE44F6C530C0F6000054
:1026800000F036FF40F20007C2F20007B81D01F06B
:10269000E1FA012878706FD0002818BFBDE8F081FA
:1026A00040F60048C4F2010800F01EFE40F202208D
:1026B000A7F801000020012100F0CCFE44F6B5305F
:1026C000C0F6000000F014FF40464FF40061012204
:1026D000FEF7C0F9C820FDF79DFF40464FF40061AA
:1026E0000022FEF7B7F9C820FDF794FF40464FF4EB
:1026F00000610122FEF7AEF9C820FDF78BFF4046CE
:102700004FF400610022FEF7A5F9C820FDF782FF13
:102710004FF4FA70FDF77EFF4FF47A70FDF77AFF01
:1027200000F0E2FD0020012100F094FE7DA000F009
:10273000DFFE0120012100F08DFE44F61140C0F6BD
:10274000000000F0D5FE00BF00F092FA0128F870FA
:102750001CD000284FD04FF47A70FDF75BFF707AE1
:102760000130C1B204297072EED100F0BDFD00202D
:1027700030717072BDE8F08100F0B6FD4FF4017069
:10278000388002203471B870BDE8F081F268D5B2AB
:10279000111DA942B27169DD02F00300304490F8C6
:1027A00014C040F2681EC2F2000E00BF501CC4B23A
:1027B000A1420EF805C057DD04F003003044037D4C
:1027C000901CC5B2A9420EF804304DDD05F003009F
:1027D0003044037DD01CC4B2A1420EF8053043DD65
:1027E00004F0030030440432007DD5B2A9420EF853
:1027F0000400DBDC39E000F077FD0020012100253A
:1028000000F028FE44F6D630C0F6000000F070FE5E
:102810000120052100F01EFE4AA000F069FE40469E
:102820004FF400610122FEF715F9C820FDF7F2FE12
:1028300040464FF400610022FEF70CF9C820FDF776
:10284000E9FE40464FF400610122FEF703F9C8207B
:10285000FDF7E0FE40464FF400610022FEF7FAF873
:10286000C820FDF7D7FE28E00246B27147F2000506
:10287000C0F601052846FDF753FE40F26811C2F28A
:10288000000128464FF47F72FDF792FE6420FDF7A9
:10289000C1FE00F029FD00200121002500F0DAFD35
:1028A00024A000F025FE0120012100F0D3FD44F614
:1028B0004D40C0F6000000F01BFE40464FF40061A2
:1028C0000122FEF7C7F8C820FDF7A4FE40464FF4EA
:1028D00000610022FEF7BEF8C820FDF79BFE4046CF
:1028E0004FF400610122FEF7B5F8C820FDF792FE13
:1028F00040464FF400610022FEF7ACF8C820FDF717
:1029000089FE4FF4FA70FDF785FE4FF4FA60FDF78B
:1029100081FE00F0E9FC40F202203571A7F80300C7
:10292000BDE8F081505554204E4557204341524454
:1029300000000000414444204E455720434152448A
:102940000000000048415320455849535445440075
:102950004D454D4F52592049532046554C4C00008F
:10296000F0B581B040F26814C2F2000447F20000F2
:10297000C0F6010021464FF47F724FF47F77FDF7D8
:10298000E3FD207840F27806C2F200060025FF2819
:10299000B5712DD0B7FBF0F20021042041F0010306
:1029A000DFB2BA4205461CD9E05DFF2819D041F0DC
:1029B0000203D8B2824216D9205CFF2813D041F01E
:1029C0000303D8B2824210D9205CFF280DD0043115
:1029D000C8B282420BD9205CFF2805F10400DDD18A
:1029E00005E0033D02E0023D00E0013D1946B17102
:1029F000F56000F03DF940F20005C2F20005012843
:102A0000E87052D0002840F0BA8002262E7100F003
:102A10006BFC0020012100F01DFD44F6A730C0F63C
:102A2000000000F065FD40F60044C4F201042046B9
:102A30004FF400610122FEF70DF8C820FDF7EAFD12
:102A400020464FF400610022FEF704F8C820FDF78D
:102A5000E1FD20464FF400610122FDF7FBFFC82095
:102A6000FDF7D8FD20464FF400610022FDF7F2FF8C
:102A7000C820FDF7CFFD4FF4FA70FDF7CBFD2046DF
:102A80004FF480610122FDF7E5FF41F28830FDF748
:102A9000C1FD20464FF480610022FDF7DBFF2E7060
:102AA00001B0BDE8F04000F01FBCF06840F6004403
:102AB0000028C4F2010464DD0220287100F014FC37
:102AC0000020012100F0C6FC66A000F011FD2046A8
:102AD0004FF400610122FDF7BDFFC820FDF79AFD0C
:102AE00020464FF400610022FDF7B4FFC820FDF737
:102AF00091FD20464FF400610122FDF7ABFFC82095
:102B0000FDF788FD20464FF400610022FDF7A2FF8B
:102B1000C820FDF77FFD20464FF400610122FDF73C
:102B200099FFC820FDF776FD20464FF40061002292
:102B3000FDF790FFC820FDF76DFD20464FF40061C2
:102B40000122FDF787FFC820FDF764FD20464FF402
:102B500000610022FDF77EFFC820FDF75BFD4FF40A
:102B6000FA70FDF757FD40F6B830FDF753FD00F061
:102B7000BBFB0420287040F20220A5F8030001B03E
:102B8000F0BD00F0B1FB0020022100F063FC44F630
:102B90002840C0F6000000F0ABFC0120002100F04E
:102BA00059FC44F65A40C0F6000000F0A1FC204653
:102BB0004FF400610122FDF74DFFC820FDF72AFD0B
:102BC00020464FF400610022FDF744FFC820FDF7C6
:102BD00021FD20464FF400610122FDF73BFFC82094
:102BE000FDF718FD20464FF400610022FDF732FF8B
:102BF000C820FDF70FFD20464FF400610122FDF7CC
:102C000029FFC820FDF706FD20464FF40061002291
:102C1000FDF720FFC820FDF7FDFC20464FF40061C2
:102C20000122FDF717FFC820FDF7F4FC20464FF402
:102C300000610022FDF70EFFC820FDF7EBFC4FF40A
:102C4000FA70FDF7E7FC4FF4FA60FDF7E3FC00F0E3
:102C50004BFB0420287040F20220A5F8030001B0CD
:102C6000F0BD00BF57524F4E472043415244210010
:102C70002DE9F04F81B040F27806C2F2000606F16D
:102C8000340426202146FFF7CBF9F0712046FFF7E8
:102C900011F8716BF071716140B140F20000C2F245
:102CA00000000479204601B0BDE8F08F40F60045F1
:102CB000C4F2010528464FF4006101220124FDF70A
:102CC000C9FEC820FDF7A6FC28464FF4006100228B
:102CD0000025FDF7BFFEC820FDF79CFC4FF4FA70FD
:102CE000FDF798FCF068B57104283EDB4FEA900EC2
:102CF00096F814B096F815A096F8169096F81780E6
:102D000040F2681000234FF0040CC2F200000027CC
:102D1000BA00D5B20CEB8303AB4230D9415D5945C3
:102D20001CD142F00105E9B28B4227D9415C5145E3
:102D300015D142F00205E9B28B421FD9415C4945E9
:102D40000DD142F00305E9B28B4217D9415C4145F0
:102D500005D10432D5B2AB42E0D810E015460137B8
:102D6000FBB29E45B771D3D8357240F20000C2F273
:102D700000000471204601B0BDE8F08F2A4640F201
:102D80000000C2F20000002432720471204601B03B
:102D9000BDE8F08F2DE9F04740F2780AC2F2000A50
:102DA000DAF80C00002840F38E8000200021002477
:102DB00000F050FB44F6C530C0F6000000F098FB70
:102DC00040F20009C2F2000909F1060000F042FFDA
:102DD000012889F8010000F0F180002818BFBDE843
:102DE000F08740F60048C4F2010800F07DFA40F296
:102DF0000220A9F801000020012100F02BFB44F67D
:102E0000B530C0F6000000F073FB40464FF400619F
:102E10000122FDF71FFEC820FDF7FCFB40464FF4E2
:102E200000610022FDF716FEC820FDF7F3FB4046C7
:102E30004FF400610122FDF70DFEC820FDF7EAFB0B
:102E400040464FF400610022FDF704FEC820FDF764
:102E5000E1FB4FF4FA70FDF7DDFB4FF47A70FDF7FC
:102E6000D9FB00F041FA0020012100F0F3FAC5A0DF
:102E700000F03EFB0120012100F0ECFA44F6114085
:102E8000C0F6000000F034FBFFF7F2FE012889F8DD
:102E9000030000F0A080002800F0D6804FF47A7084
:102EA000FDF7B8FB9AF809000130C1B204298AF88D
:102EB0000900E9D100F018FA00208AF804008AF825
:102EC0000900BDE8F08700F00FFA0020022100257C
:102ED000022700F0BFFA44F62840C0F6000000F0D8
:102EE00007FB0120002100F0B5FA44F65A40C0F675
:102EF000000000F0FDFA40F60044C4F20104204650
:102F00004FF400610122FDF7A5FDC820FDF782FB0B
:102F100020464FF400610022FDF79CFDC820FDF71C
:102F200079FB20464FF400610122FDF793FDC82094
:102F3000FDF770FB20464FF400610022FDF78AFD8B
:102F4000C820FDF767FB20464FF400610122FDF722
:102F500081FDC820FDF75EFB20464FF40061002292
:102F6000FDF778FDC820FDF755FB20464FF40061C2
:102F70000122FDF76FFDC820FDF74CFB20464FF402
:102F800000610022FDF766FDC820FDF743FB4FF40A
:102F9000FA70FDF73FFB4FF4FA60FDF73BFB00F0E2
:102FA000A3F940F20000C2F2000040F202218AF8C8
:102FB00004504770A0F80310BDE8F08700F094F9C2
:102FC0004FF40170A9F8000002208AF8044089F843
:102FD0000200BDE8F08700F087F9002002210025FB
:102FE00000F038FA6BA000F083FA0120062100F00F
:102FF00031FA44F6D630C0F6000000F079FA4046C7
:103000004FF400610122FDF725FDC820FDF702FB0A
:1030100040464FF400610022FDF71CFDC820FDF77B
:10302000F9FA40464FF400610122FDF713FDC82074
:10303000FDF7F0FA40464FF400610022FDF70AFD6B
:10304000C820FDF7E7FA67E09AF80600DAF80C10F6
:103050008700FCB2A1428AF80A7036DD40F268129D
:10306000C2F200020B1F4FF0FF3C00BF101906799F
:1030700047F00100A342C5B2D8BF6646A942165523
:1030800020DD5019067947F00200AB42C4B2D8BF28
:103090006646A142565515DD1019067947F0030022
:1030A000A342C5B2D8BF6646A94216550ADD5019DB
:1030B00004370079AB42FCB2D8BF6046A1425055FC
:1030C000D4DC00E007468AF80A7047F20005C0F633
:1030D00001052846FDF724FA40F26811C2F200010A
:1030E00028464FF47F72FDF763FA6420FDF792FAE9
:1030F00000F0FAF800200121002500F0ABF928A02B
:1031000000F0F6F90120012100F0A4F944F64D4049
:10311000C0F6000000F0ECF940464FF400610122D7
:10312000FDF798FCC820FDF775FA40464FF40061A2
:103130000022FDF78FFCC820FDF76CFA40464FF4E3
:1031400000610122FDF786FCC820FDF763FA4046C6
:103150004FF400610022FDF77DFCC820FDF75AFA0C
:103160004FF4FA70FDF756FA4FF4FA60FDF752FA91
:1031700000F0BAF840F202208AF80450A9F80300DF
:10318000BDE8F08750555420594F555220434152C5
:10319000440000004E4F20455849535400000000A1
:1031A00044454C20544849532043415244000000B8
:1031B000B0B500F0ABFB40F27804FF28C2F2000487
:1031C00003D060716420FDF725FA60792338212847
:1031D0001ED8DFE800F0111D1D1D1D1D1D1E1D1D2B
:1031E0001D1D1D1D1D1D1D1D1D1D1D1D1D1D1D1D0F
:1031F0001D1D1D1D323F4E5C00F076F840F20001AF
:103200000020C2F20001022220808A702071087022
:10321000B0BD40F200052078C2F2000569790028AF
:1032200043D0002941D101382070C1B2012000F003
:1032300011F9202000F03AF941E000F055F80020A3
:10324000208040F20000C2F2000001210170032042
:103250002071B0BD00F048F80020207001202071DE
:1032600040F20000C2F200000421017002218170CE
:10327000B0BD00F039F8002040F2000120700220BB
:10328000C2F20001042220710A708870B0BD00F003
:103290002BF80020207040F20000C2F20000032151
:1032A0000170217102218170B0BD084307D100F087
:1032B0001BF80220A870042028700020207160787C
:1032C000002808BFB0BD29780229A1D1052894BFE4
:1032D000411EC11F012000F0BDF8202000F0E6F8DB
:1032E000607801386070B0BD2DE9F04182B048F6D9
:1032F0008C0040F2BC04C0F60C00C2F2000401AD28
:1033000001904FF0640820464E212A460423CDF850
:103310000080FDF76BFC42F62D164627C0F60D1611
:1033200020464E212A4604230196CDF80080FDF761
:103330005DFC013FF4D102B0BDE8F081F0B583B08F
:103340003220FDF767F940F2BC0443F63C07C2F2B5
:10335000000402ADC0F60C07642620464E212A4622
:10336000042302970096FDF741FC0520FDF752F972
:1033700020464E212A46042302970096FDF736FC8C
:103380000120FDF747F920464E212A4604230297E3
:103390000096FDF72BFC0A20FDF73CF942F62C00C5
:1033A000C0F60C00029020464E212A4604230096C7
:1033B000FDF71CFC0A20FDF72DF942F62C00C8F69B
:1033C0008C00029020464E212A4604230096FDF7E9
:1033D0000DFC0120FDF71EF940F60C00C8F68C002C
:1033E000029020464E212A4604230096FDF7FEFB5C
:1033F0000120FDF70FF940F60C00C1F61C00029009
:1034000020464E212A4604230096FDF7EFFB0120BB
:10341000FDF700F90120FDF7FDF840F60C00C6F6B7
:103420006C00029020464E212A4604230096FDF7A8
:10343000DDFB0120FDF7EEF840F60C00CCF6CC00E9
:10344000029020464E212A4604230096FDF7CEFB2B
:1034500003B0F0BD012804D0002808BF41F080016E
:1034600001E041F0C00180B582B021F00F000901F8
:1034700000F10C0208308DF8050001F10C008DF808
:10348000060001F108008DF8070040F2BC008DF83D
:1034900004204FF0640CC2F2000001AA4E21042364
:1034A000CDF800C0FDF7A2FB02B080BD80B582B0B0
:1034B00000F0F001000101F10D0209318DF8051055
:1034C00000F10D0109308DF8070040F2BC008DF8C5
:1034D00004208DF806104FF0640CC2F2000001AA1F
:1034E0004E210423CDF800C0FDF780FB02B080BD63
:1034F000F0B583B0017821B340F2BC04461E6427C6
:10350000C2F2000402AD00BF21F00F00090100F17A
:103510000D0209308DF8090001F10D008DF80A0047
:1035200001F109008DF808208DF80B0020464E218E
:103530002A4604230097FDF759FBB178013600298C
:10354000E2D103B0F0BD000080B500F06FF9FFF7E5
:103550002FFE40F27800C2F200000079022805D068
:10356000012806D038B9FFF7FBF904E0FFF712FC99
:1035700001E0FFF75BF840F20000C2F200000078C3
:10358000032888BF80BDDFE800F002060A0EBDE810
:10359000804000F05FBDBDE8804000F01DBBBDE88D
:1035A000804000F02BBCBDE8804000F063BF00000D
:1035B00090B0FDF77FFC002401204FF48031CDE96D
:1035C0000B44CDE909440690CDE907140A90022581
:1035D0004FF4E010CDE90D510F9006A80594CDE908
:1035E0000344CDE90144FDF7EDFD20B1EFF3108078
:1035F00072B600BFFEE70F20CDE901054FF48060F1
:103600000394CDE9040401A80221FDF7E9FC20B1EF
:10361000EFF3108072B600BFFEE741F21800C4F26B
:103620000200016840F6004841F0100101600168A5
:10363000C4F2010801F0100106910699016808F52D
:10364000806541F0200101600168002201F0200145
:103650000691069901684FF4005741F0040101609A
:103660000168002401F0040106910699016841F007
:103670000801016000684FF4005100F00800069056
:1036800006982846FDF7E6F9A8F58066304641F62B
:103690001061002241F6106AFDF7DCF940464FF454
:1036A00040610022FDF7D6F9069706AF4FF00109F9
:1036B0004FF0020B28463946CDE90794CDF824B0E7
:1036C000FDF7BAF830463946CDE906A9CDE9084BF1
:1036D000FDF7B2F84FF44060CDE90609404639469F
:1036E000CDE9084BFDF7A8F848F2F00006A981E8FB
:1036F000110240463946FDF79FF840F2BC00A8F59C
:103700003841C2F2000048F2A0624FF48043C0F298
:10371000010280E81600C0E90343C0E90544C0E99E
:103720000744FDF7A3F920B1EFF3108072B600BF94
:10373000FEE740F2101008F51051C2F200004FF4FD
:1037400082724FF40073182780E816000A21C0E93E
:103750000344C0E90543C761C0E90844C0E90A4120
:10376000FDF704FF18B1EFF3108072B6FEE746F6DE
:103770000044C0F60104A4F580652846FCF7D0FE9D
:1037800040F20000C2F20000861D284631460622A3
:10379000FCF70EFF6420FCF73DFF2046FCF7C0FE5F
:1037A000204631460622FCF703FF6420FCF732FF77
:1037B00040F27805C2F2000505F119012046062203
:1037C000FCF7C2FE04F50060FCF7F0FEA87004F5FB
:1037D0004060FCF7EBFEE870FEF71CFBFFF7AEFD68
:1037E00000200321FFF736FE09A0FFF781FE01202C
:1037F0000121FFF72FFE09A0FFF77AFE4FF4FA60D0
:10380000FCF708FFFFF770FDFFF79EFEFCE700BF27
:1038100057454C4C434F4D45000000004E484F4D1E
:103820002039202D204441434E000000B0B540F621
:103830000044C4F2010420464FF40041FDF704F9AE
:10384000002818BFB0BD00BF20464FF40041FDF76F
:10385000FBF80028F8D0FFF747FD002001210025E4
:10386000FFF7F8FD44F6A730C0F60000FFF740FE72
:1038700020464FF400610122FDF7ECF8C820FCF768
:10388000C9FE20464FF400610022FDF7E3F8C8208E
:10389000FCF7C0FE20464FF400610122FDF7DAF884
:1038A000C820FCF7B7FE20464FF400610022FDF768
:1038B000D1F8C820FCF7AEFE4FF4FA70FCF7AAFE70
:1038C00020464FF480610122FDF7C4F841F28830B0
:1038D000FCF7A0FE20464FF480610022FDF7BAF805
:1038E000FFF702FD40F20000C2F200004FF4017148
:1038F00001800221817040F20221A0F8031040F201
:103900007800C2F200000571B0BD0000B0B540F60D
:103910000044C4F20104A4F5806528464FF48051A8
:103920000022FDF797F828464FF400610122FDF7C9
:1039300091F828464FF480610122FDF78BF8284664
:103940004FF400710122FDF785F820468021FDF734
:103950007BF8002800F0BC8020464021FDF774F879
:10396000002800F0BD8020462021FDF76DF80028DA
:1039700000F0BE8020461021FDF766F8002800F018
:10398000BF8028464FF480510122FDF763F8284696
:103990004FF400610022FDF75DF828464FF4806186
:1039A0000122FDF757F828464FF400710122FDF778
:1039B00051F820468021FDF747F8002800F0A88044
:1039C00020464021FDF740F8002800F0A98020465D
:1039D0002021FDF739F8002800F0AA8020461021A8
:1039E000FDF732F8002800F0AD8028464FF48051F2
:1039F0000122FDF72FF828464FF400610122FDF760
:103A000029F828464FF480610022FDF723F8284664
:103A10004FF400710122FDF71DF820468021FDF7CB
:103A200013F8002800F0988020464021FDF70CF89C
:103A3000002800F09A8020462021FDF705F8002894
:103A400000F09C8020461021FCF7FEFF002800F0CB
:103A50009E8028464FF480510122FCF7FBFF284648
:103A60004FF400610122FCF7F5FF28464FF4806116
:103A70000122FCF7EFFF28464FF400710022FCF70B
:103A8000E9FF20468021FCF7DFFF002800F0888056
:103A900020464021FCF7D8FF002800F08A8020460D
:103AA0002021FCF7D1FF002800F08C802046102157
:103AB000FCF7CAFF00281CBF0020B0BD2046102123
:103AC000FCF7C2FF00284FF04400F7D082E000BFAF
:103AD00020468021FCF7B8FF0028F9D03120B0BD86
:103AE00020464021FCF7B0FF0028F9D03420B0BDBB
:103AF00020462021FCF7A8FF0028F9D03720B0BDD0
:103B000020461021FCF7A0FF0028F9D02A20B0BDE4
:103B100020468021FCF798FF0028F9D03220B0BD64
:103B200020464021FCF790FF0028F9D03520B0BD99
:103B300020462021FCF788FF00284FF03800F7D0FE
:103B400048E000BF20461021FCF77EFF00284FF020
:103B50003000F7D03EE000BF20468021FCF774FF24
:103B600000284FF03300F7D034E020464021FCF726
:103B70006BFF00284FF03600F7D02BE020462021C5
:103B8000FCF762FF00284FF03900F7D022E0204612
:103B90001021FCF759FF00284FF02300F7D019E05F
:103BA00020468021FCF750FF00284FF04100F7D05D
:103BB00010E020464021FCF747FF00284FF042006C
:103BC000F7D007E020462021FCF73EFF00284FF009
:103BD0004300F7D0B0BD000010B500200121FFF771
:103BE00039FC14A0FFF784FC40F27800C2F2000018
:103BF000193000F02FF840F20004C2F2000401284E
:103C0000607010D0002818BF10BD4FF49670FCF7FC
:103C100001FD00200121FFF71DFC0AA0FFF768FC51
:103C20000220207010BDFFF75FFB022060700420AF
:103C3000207010BD4F4C442050415353574F5244B5
:103C40003A0000004E45572050415353574F5244BD
:103C50003A000000F0B581B040F27806C2F20006EA
:103C60000446707940F200053038C2F20005092898
:103C70004FF00000687106D8317839B105290AD9AA
:103C8000C8B206281BD0A87801B0F0BDFFF72CFB06
:103C900031780529F4D870797218D0770120FFF7B0
:103CA000D9FB44F6C330C0F60000FFF721FC3078A2
:103CB000411C002031707071C8B20628E3D1002782
:103CC0003770FFF711FBB7712078F17F884229D157
:103CD0000120B071607896F82010884222D102202D
:103CE000B071A07896F8211088421BD10320B071E2
:103CF000E07896F82210884214D10420B07120791F
:103D000096F8231088420DD10520B071607996F89D
:103D10002410884206D10620B0710020A870A8782F
:103D200001B0F0BD0120A870FFF7DEFA00200021ED
:103D3000FFF790FB2DA0FFF7DBFB40F60044C4F239
:103D4000010420464FF400610122FCF783FEC820E5
:103D5000FCF760FC20464FF400610022FCF77AFE7D
:103D6000C820FCF757FC20464FF400610122FCF705
:103D700071FEC820FCF74EFC20464FF40061002283
:103D8000FCF768FEC820FCF745FC20464FF40061B4
:103D90000122FCF75FFEC820FCF73CFC20464FF4F4
:103DA00000610022FCF756FEC820FCF733FC2046D9
:103DB0004FF400610122FCF74DFEC820FCF72AFCFD
:103DC00020464FF400610022FCF744FEC820FCF7B7
:103DD00021FC4FF4FA70FCF71DFC40F6B830FCF7FC
:103DE00019FCFFF781FAA87801B0F0BD57524F4E89
:103DF000472050415353574F52442100F0B581B0F2
:103E000040F27807C2F200077879A0F13001092961
:103E100000F20E81797805291CD87A1882F82600DC
:103E20000120FFF717FB44F6C330C0F60000FFF790
:103E30005FFB78780130C1B2062978701AD1FFF79C
:103E400053FA00200121FFF705FB7AA0FFF750FB92
:103E500078780FE006397A1882F82D000120FFF7F4
:103E6000F9FA44F6C330C0F60000FFF741FB78785A
:103E700001307870C0B200250C287D7140F0D880E8
:103E800040F60044C4F20104FFF72EFA97F826002A
:103E900097F82D107D708842BD7158D197F8270092
:103EA00097F82E1001228842BA7150D197F8280055
:103EB00097F82F1002228842BA7148D197F829004A
:103EC00097F8301003228842BA7140D197F82A003F
:103ED00097F8311004228842BA7138D197F82B0034
:103EE00097F8321005228842BA7130D1D7F82600EF
:103EF0003D4645F8190FB5F8110046F60046A88072
:103F00000020C0F6010605F8130C3046FCF708FB4C
:103F1000304629460622FCF74BFB6420FCF77AFB6F
:103F2000FFF7E2F900200421FFF794FA44F6EE309F
:103F3000C0F60000FFF7DCFA01200221FFF78AFA41
:103F400044F64D40C0F60000FFF7D2FA36E0FFF726
:103F5000CBF900200421FFF77DFA44F6EE30C0F6DD
:103F60000000FFF7C5FA01200021FFF773FA35A022
:103F7000FFF7BEFA20464FF400610122FCF76AFD0C
:103F8000C820FCF747FB20464FF400610022FCF7F5
:103F900061FDC820FCF73EFB20464FF40061012282
:103FA000FCF758FDC820FCF735FB20464FF40061B4
:103FB0000022FCF74FFDC820FCF72CFB20464FF4F5
:103FC00000610122FCF746FDC820FCF723FB2046D8
:103FD0004FF4006100220025FCF73CFDC820FCF7EF
:103FE00019FB20464FF400610122FCF733FDC82085
:103FF000FCF710FB20464FF400610022FCF72AFD7D
:10400000C820FCF707FB4FF4FA70FCF703FB40F203
:104010000004C2F2000402264FF4FA60A670FCF716
:10402000F9FAFFF761F94FF40170A67020803D7135
:1040300001B0F0BD434F4E4649524D2050415353BD
:104040003A000000554E5355434345535346554C93
:104050004C5900002DE9F04188B000200021FFF705
:10406000F9F90FF20040FFF743FA40F27807C2F285
:10407000000707F11900FFF7EDFD40F20006C2F25C
:1040800000060128707067D0002840F0E7814FF4E7
:104090009670FCF7BFFAFFF727F9002001210025F1
:1040A000FFF7D8F944F6A730C0F60000FFF720FA72
:1040B00040F60044C4F2010420464FF4006101229E
:1040C000FCF7C8FCC820FCF7A5FA20464FF40061B5
:1040D0000022FCF7BFFCC820FCF79CFA20464FF4F6
:1040E00000610122FCF7B6FCC820FCF793FA2046D9
:1040F0004FF400610022FCF7ADFCC820FCF78AFAFF
:104100004FF4FA70FCF786FA20464FF480610122E2
:10411000FCF7A0FC41F28830FCF77CFA20464FF413
:1041200080610022FCF796FCFFF7DEF847F20044BE
:10413000C0F601042046BD70FCF7F2F9B9782046BC
:10414000FCF758FA6420FCF765FA0420307002206E
:10415000B07008B0BDE8F081B87847F20044013093
:10416000C0F601044FF00208B870204686F80280BD
:10417000FCF7D6F9B9782046FCF73CFA6420FCF746
:1041800049FAB8780328C0F06281FFF7ADF8BA7831
:1041900044F63E4104ACC0F600012046FCF718F896
:1041A00040F60045C4F2010528464FF400610122A3
:1041B000FCF750FCC820FCF72DFA28464FF40061AC
:1041C0000022FCF747FCC820FCF724FA28464FF4ED
:1041D00000610122FCF73EFCC820FCF71BFA2846D0
:1041E0004FF400610022FCF735FCC820FCF712FAFE
:1041F00028464FF400610122FCF72CFCC820FCF794
:1042000009FA28464FF400610022FCF723FCC8207D
:10421000FCF700FA28464FF400610122FCF71AFC73
:10422000C820FCF7F7F928464FF400610022FCF79C
:1042300011FCC820FCF7EEF928464FF4006101227A
:10424000FCF708FCC820FCF7E5F928464FF40061AC
:104250000022FCF7FFFBC820FCF7DCF928464FF4EE
:1042600000610122FCF7F6FBC820FCF7D3F92846D1
:104270004FF400610022FCF7EDFBC820FCF7CAF9FF
:1042800028464FF400610122FCF7E4FBC820FCF74C
:10429000C1F928464FF400610022FCF7DBFBC8207F
:1042A000FCF7B8F928464FF400610122FCF7D2FB75
:1042B000C820FCF7AFF928464FF400610022FCF754
:1042C000C9FBC820FCF7A6F928464FF4006101227B
:1042D000FCF7C0FBC820FCF79DF928464FF40061AD
:1042E0000022FCF7B7FBC820FCF794F928464FF4EE
:1042F00000610122FCF7AEFBC820FCF78BF92846D1
:104300004FF400610022FCF7A5FBC820FCF782F9FE
:1043100028464FF400610122FCF79CFBC820FCF703
:1043200079F928464FF400610022FCF793FBC8207E
:10433000FCF770F928464FF400610122FCF78AFB74
:10434000C820FCF767F928464FF400610022FCF70B
:1043500081FBC820FCF75EF928464FF4006101227A
:10436000FCF778FBC820FCF755F928464FF40061AC
:104370000022FCF76FFBC820FCF74CF928464FF4ED
:1043800000610122FCF766FBC820FCF743F92846D0
:104390004FF400610022FCF75DFBC820FCF73AF9FE
:1043A00028464FF400610122FCF754FBC820FCF7BB
:1043B00031F928464FF400610022FCF74BFBC8207E
:1043C000FCF728F94FF4FA70FCF724F9FEF78CFF9C
:1043D00000200321FFF73EF844F69E30C0F60000AF
:1043E000FFF786F801200121FFF734F82046FFF798
:1043F0007FF8FEF779FFB878022100EB8000C0005B
:1044000038610020FFF726F844F61F40C0F6000090
:10441000FFF76EF83A69012A17DB44F63344C0F619
:1044200000046D4628462146FBF7D2FE01200121FB
:10443000FFF710F82846FFF75BF84FF47A70FCF7A7
:10444000E9F83869421E3A61ECDCFEF74DFF4FF4A3
:1044500001703080002086F80280387108B0BDE815
:10446000F08100BF454E5445522050415353574FA1
:1044700052443A002DE9F04F89B000200021FEF7A8
:10448000E9FF44F6C530C0F60000FFF731F840F20E
:104490000007C2F20007B81D0090FFF7DBFB40F2F7
:1044A000780B0128C2F2000B787000F0B18100286F
:1044B00040F03C8340F2022040F6004546F60046BC
:1044C000A7F8010000200021C4F20105C0F6010692
:1044D0004FF00008FEF7BEFF0FF25860FFF708F834
:1044E00001200321FEF7B6FF0FF25860FFF700F836
:1044F00028464FF400610122FCF7ACFAC820FCF713
:1045000089F828464FF400610022FCF7A3FAC8207E
:10451000FCF780F828464FF400610122FCF79AFA74
:10452000C820FCF777F828464FF400610022FCF71A
:1045300091FAC820FCF76EF84FF4FA70FCF76AF8AD
:1045400006F540694846FBF7EBFF484600218BF82B
:104550000380FCF74FF86420FCF75CF84FF47A70A6
:10456000FCF758F80FF2E8540FF2F85706F5006A16
:1045700008E0FEF7B9FE9BF805003138012840F24B
:104580003F8100BFFEF714FE00200021FEF762FF0E
:104590002046FEF7ADFF01200021FEF75BFF384605
:1045A000FEF7A6FF9BF8050030380928EAD8FEF789
:1045B0009BFE9BF8050031287AD03228E2D12846AC
:1045C0004FF400610122FCF745FAC820FCF722F8FD
:1045D00028464FF400610022FCF73CFAC820FCF7A3
:1045E00019F84FF4FA70FCF715F800200021FEF7D7
:1045F00031FF44F6F530C0F60000FEF779FF0120E8
:104600000121FEF727FF44F60240C0F60000FEF746
:104610006FFF8BF8058000BFFEF7CAFD9BF8050011
:10462000A0F130010929F7D83228A2D03128F3D1DE
:10463000FEF75AFE3046FBF773FF0099304606221C
:10464000FBF7B6FF6420FBF7E5FF5046FBF768FF7A
:10465000504600218BF80280FBF7CCFF6420FBF76B
:10466000D9FF4846FBF75CFF484600218BF80380E2
:10467000FBF7C0FF6420FBF7CDFF06F58060FBF77A
:104680004FFF0BF1190130460622FBF75DFF4FF497
:10469000FA60FBF7BFFF00200021FEF7DBFE44F6C7
:1046A000F530C0F60000FEF723FF0120022167E08D
:1046B00028464FF400610122FCF7CCF9C820FBF733
:1046C000A9FF28464FF400610022FCF7C3F9C82077
:1046D000FBF7A0FF4FF4FA70FBF79CFF00200021CE
:1046E000FEF7B8FE44F6DF30C0F60000FEF700FF2C
:1046F00001200121FEF7AEFE44F60240C0F60000A4
:10470000FEF7F6FE8BF80580FEF752FD9BF80500DC
:10471000A0F130010929F7D832283FF42AAF312817
:10472000F2D1FEF7E1FD3046FBF7FAFE0099304684
:104730000622FBF73DFF6420FBF76CFF5046FBF7BA
:10474000EFFE504600218BF80280FBF753FF6420F8
:10475000FBF760FF0BF1190130460622FBF7F4FE70
:104760004FF4FA60FBF756FF00200021FEF772FEBF
:1047700044F6DF30C0F60000FEF7BAFE012000214B
:10478000FEF768FE44F64D40C0F60000FEF7B0FEAE
:1047900028464FF400610122FCF75CF9C820FBF7C2
:1047A00039FF28464FF400610022FCF753F9C82076
:1047B000FBF730FF28464FF400610122FCF74AF96D
:1047C000C820FBF727FF28464FF400610022FCF7C2
:1047D00041F9C820FBF71EFF4FF4FA70FBF71AFFF0
:1047E000FEF782FD40F20000C2F2000004210170D9
:1047F0008BF804809BF80500313801283FF6C2AEE3
:10480000002040F200078BF80500C2F2000788E1A3
:104810009BF803100220B870481C8BF8030046F682
:104820000040C0F6010000F540642046FBF778FE2A
:104830009BF803102046FBF7DDFE6420FBF7EAFE41
:104840009BF803000328C0F06881FEF74DFD9BF83C
:10485000032044F63E4105ACC0F600012046FBF7BC
:10486000B7FC40F60045C4F2010528464FF400614C
:104870000122FCF7EFF8C820FBF7CCFE28464FF4E6
:1048800000610022FCF7E6F8C820FBF7C3FE2846CB
:104890004FF400610122FCF7DDF8C820FBF7BAFEF7
:1048A00028464FF400610022FCF7D4F8C820FBF73B
:1048B000B1FE28464FF400610122FCF7CBF8C82076
:1048C000FBF7A8FE28464FF400610022FCF7C2F86F
:1048D000C820FBF79FFE28464FF400610122FCF739
:1048E000B9F8C820FBF796FE28464FF40061002275
:1048F000FCF7B0F8C820FBF78DFE28464FF40061A6
:104900000122FCF7A7F8C820FBF784FE28464FF4E5
:1049100000610022FCF79EF8C820FBF77BFE2846CA
:104920004FF400610122FCF795F8C820FBF772FEF6
:1049300028464FF400610022FCF78CF8C820FBF7F2
:1049400069FE28464FF400610122FCF783F8C82075
:10495000FBF760FE28464FF400610022FCF77AF86E
:10496000C820FBF757FE28464FF400610122FCF7F0
:1049700071F8C820FBF74EFE28464FF40061002274
:10498000FCF768F8C820FBF745FE28464FF40061A5
:104990000122FCF75FF8C820FBF73CFE28464FF4E5
:1049A00000610022FCF756F8C820FBF733FE2846CA
:1049B0004FF400610122FCF74DF8C820FBF72AFEF6
:1049C00028464FF400610022FCF744F8C820FBF7AA
:1049D00021FE28464FF400610122FCF73BF8C82075
:1049E000FBF718FE28464FF400610022FCF732F86E
:1049F000C820FBF70FFE28464FF400610122FCF7A8
:104A000029F8C820FBF706FE28464FF40061002273
:104A1000FCF720F8C820FBF7FDFD28464FF40061A5
:104A20000122FCF717F8C820FBF7F4FD28464FF4E5
:104A300000610022FCF70EF8C820FBF7EBFD2846CA
:104A40004FF400610122FCF705F8C820FBF7E2FDF6
:104A500028464FF400610022FBF7FCFFC820FBF75B
:104A6000D9FD28464FF400610122FBF7F3FFC8206F
:104A7000FBF7D0FD28464FF400610022FBF7EAFF68
:104A8000C820FBF7C7FD4FF4FA70FBF7C3FDFEF734
:104A90002BFC00200321FEF7DDFC44F69E30C0F61F
:104AA0000000FEF725FD01200121FEF7D3FC204682
:104AB000FEF71EFDFEF718FC9BF80300022100EB39
:104AC0008000C000CBF810000020FEF7C3FC44F6C5
:104AD0001F40C0F60000FEF70BFDDBF81020012A96
:104AE00019DB44F63344C0F6000401AD28462146E4
:104AF000FBF76EFB01200121FEF7ACFC2846FEF718
:104B0000F7FC4FF47A70FBF785FDDBF81000421ECE
:104B1000CBF81020EADCFEF7E7FB40F20220A7F812
:104B200001000420387000208BF8040009B0BDE8B3
:104B3000F08F00BF50415353574F5244204D4153C3
:104B400054455200495320434F52524543540000AC
:104B5000313A52455345542050415353574F5244D4
:104B600000000000323A52455345542053595354E3
:104B7000454D000000000000000000000102030499
:104B800006070809000000000102030401020203F5
:104B90000405060708090A0B0C0D0E0F10105741EB
:104BA000524E494E472100444F4F52204953204F07
:104BB00050454E2100434F525245435420504153DB
:104BC0005321002A0050415353574F5244204D4126
:104BD000535445523A0054484520434152440052F0
:104BE000455345542050415353574F524400434876
:104BF000414E47450052455345542053595354455F
:104C00004D00313A5945532020202020323A4E4F52
:104C1000004F4E204E4643205245414445520057D6
:104C200041495420464F5200544845204341524484
:104C30002753002564205345434F4E445300575299
:104C40004F4E472025642054494D4553005355434A
:104C50004345535346554C4C59004D454D4F5259C1
:104C600020495320454D505459000000904C0008F5
:104C7000000000201800000028010008A84C0008CF
:104C800018000020780B000044010008000000001C
:104C900004020202020131313131313101000000E0
:084CA000100000000024F400E4
:04000005080000ED02
:00000001FF
